:100000000C9490000C94B8000C94B8000C94B800B8
:100010000C94B8000C94B8000C94B8000C94B80080
:100020000C94B8000C94B8000C9422050C94940520
:100030000C94B8000C94B8000C94B8000C94B80060
:100040000C94B8000C94B8000C94B8000C94B80050
:100050000C94B8000C94B8000C94B8000C941303E2
:100060000C94B8000C94B8000C94B8000C94B80030
:100070000C94B8000C94B8000C94B8000C94B80020
:100080000C94B8000C94B8000C94B8000C94B80010
:100090000C94B8000C94B8000C94B8000C94B80000
:1000A0000C94B8000C94B8000C94B800080B000233
:1000B0000202010009040000010202000005240000
:1000C0001001052401010104240206052406000193
:1000D0000705810310004009040100020A00000026
:1000E00007050202400000070583024000000403E8
:1000F000090412010002EF02014041234180000186
:100100000102030141726475696E6F204C4C43001B
:1001100041726475696E6F2059756E00FF09030C9A
:1001200011241FBECFEFDAE0DEBFCDBF24E0ACE08C
:10013000B3E001C01D92A83CB207E1F713E0A0E0D4
:10014000B1E0E0E1FDE102C005900D92AC30B107F5
:10015000D9F710E0CFE8D0E004C02197FE010E945B
:10016000600CCE38D107C9F70E946F0A0C947B0E41
:100170000C9400008091BC0481110DC082E080933A
:10018000B80484E08093B9041092BB041092BA04BE
:1001900081E08093BC0488EB94E008953FB7F89425
:1001A0008091B4049091B504A091B604B091B704C5
:1001B00026B5A89B05C02F3F19F00196A11DB11DC2
:1001C0003FBFBA2FA92F982F8827820F911DA11DFD
:1001D000B11DBC01CD0142E0660F771F881F991F3A
:1001E0004A95D1F70895CF92DF92EF92FF920F9345
:1001F0001F93CF93DF938C01E090AB04F090AC049D
:1002000086E6C82E83E0D82EC0E0D0E0CE15DF050C
:100210009CF5F60126813781F801848195812817A4
:10022000390729F5F60182819381F8016081718196
:10023000009719F061157105B1F46115710551F060
:10024000232BE9F0FB01208130E088279927821BCE
:10025000930B0BC0009799F0232B89F0FC01908140
:10026000892F90E002C00E946B0E892B41F02196ED
:10027000FEE0CF0ED11CCACF8FEF9FEF01C0CE01A1
:10028000DF91CF911F910F91FF90EF90DF90CF9072
:1002900008950E945D0E0F931F93CF93DF93EC019F
:1002A00088819981009729F02A813B812617370799
:1002B00088F48B016F5F7F4F0E94930D009761F070
:1002C000998388831B830A832C813D81232B11F41E
:1002D000FC01108281E001C080E0DF91CF911F918D
:1002E0000F910895EF92FF920F931F93CF93DF9397
:1002F000FC01248135816115710511F480E019C07C
:1003000041155105A9F07B01EC018A01020F131F71
:10031000B8010E944B01882389F3288139818C819F
:100320009D81B701820F931F0E94740E1D830C8361
:1003300081E0DF91CF911F910F91FF90EF90089591
:10034000CF93DF93EC0188819981009711F00E948F
:10035000FB0C198218821D821C821B821A82DF917B
:10036000CF910895CF93DF93EC016115710561F092
:10037000FB0101900020E9F73197AF01461B570BB5
:100380000E947201811103C0CE010E94A001CE0122
:10039000DF91CF910895EF92FF920F931F93CF9328
:1003A000DF93EC017B018A01BA010E944B018111AC
:1003B00004C0CE010E94A00107C01D830C83B701B9
:1003C000888199810E94740ECE01DF91CF911F9197
:1003D0000F91FF90EF9008950F931F93CF93DF93AA
:1003E0001F92CDB7DEB782E0898342E450E06CEA29
:1003F00070E080E80E94CB090E94BA00DC011296EE
:100400000D911C9113970115110569F0D801ED911B
:10041000FC910280F381E02DBE016F5F7F4FC80128
:10042000099597FF07C089810F90DF91CF911F91A8
:100430000F910895F80100851185E5CFCF92DF92E5
:10044000EF92FF920F931F93CF93DF931F92CDB73D
:10045000DEB7182F062FE42E862F880F8E5F998324
:100460000E949D0983E00E949D09F12EC12E998171
:10047000D92E8C2D8F19801798F4F601E7FE02C053
:10048000849101C080810E949D09182F80E00E9404
:100490009D098123FFEFCF1ADF0A8111EACF01C046
:1004A00081E00F90DF91CF911F910F91FF90EF901E
:1004B000DF90CF900895BC01009791F0FC0101906E
:1004C0000020E9F73197AF01481B590BE091160363
:1004D000F09117030280F381E02D86E193E0099407
:1004E00080E090E00895CF93DF93E0911603F091C0
:1004F0001703DC0114964D915C9115976D917C91D9
:100500000280F381E02D86E193E00995EC018DE313
:1005100091E00E945B028C0F9D1FDF91CF910895A7
:10052000CF93DF930E945B02EC018DE391E00E9488
:100530005B028C0F9D1FDF91CF910895FC0180918C
:100540001503811103C08FEF9FEF08959FB7F894B3
:1005500082E08093E9002091F20030E01216130649
:1005600014F421E030E02115310559F0289884E693
:10057000809314038091F10080838091F20088239E
:1005800019F09FBFC90108958BE68093E800F9CF69
:100590002FB7F89483E08093E9009091E800892FC9
:1005A000807295FF04C09091F20080E4891B2FBFF8
:1005B00008958F929F92AF92BF92CF92DF92EF9267
:1005C000FF926B017C010E94CE004B015C01C114C3
:1005D000D104E104F104F1F00E94CE00DC01CB0172
:1005E00088199909AA09BB09883E9340A105B1055C
:1005F00070F321E0C21AD108E108F10888EE880EF4
:1006000083E0981EA11CB11CC114D104E104F104C3
:1006100019F7DDCFFF90EF90DF90CF90BF90AF90B4
:100620009F908F9008951F920F920FB60F921124F2
:100630002F933F938F939F93AF93BF938091B00479
:100640009091B104A091B204B091B3043091AF0481
:1006500023E0230F2D3720F40196A11DB11D05C005
:1006600026E8230F0296A11DB11D2093AF048093AD
:10067000B0049093B104A093B204B093B3048091FA
:10068000B4049091B504A091B604B091B70401965A
:10069000A11DB11D8093B4049093B504A093B6043A
:1006A000B093B704BF91AF919F918F913F912F91DC
:1006B0000F900FBE0F901F901895CF93DF93EC0112
:1006C000FB018617970761F06081718161157105E3
:1006D00029F0448155810E94CB0102C00E94A001F3
:1006E000CE01DF91CF910895FF920F931F93CF9387
:1006F000DF93EC01BC016E5F7F4F0BEA14E0F80161
:10070000208131818EE0F82EF29EC001F39E900D83
:10071000112488599C4F0E945D03F80180819181CA
:1007200028853985F89EF001F99EF00D1124EA59CB
:10073000FC4F318720872A8522872B8523872C85AC
:100740003D85358724870196F80191838083DF9169
:10075000CF911F910F91FF900895FC0180819181AD
:100760000C94FB0CFC011182108213821282158200
:1007700014820C945D03CF92DF92EF92FF920F935D
:100780001F93CF93DF9300D000D000D0CDB7DEB75A
:1007900086E491E00E945B0228E6E22E23E0F22E3E
:1007A00000E010E08091AB049091AC0408171907A9
:1007B00094F50197081719072CF092E4C92E91E0DF
:1007C000D92E04C080E4C82E81E0D82EB701CE0116
:1007D00001960E94B203B601CE0101960E94B201B9
:1007E000E0911603F0911703DC0114964D915C9192
:1007F00015976D917C910280F381E02D86E193E065
:100800000995CE0101960E94AD030F5F1F4FBEE018
:10081000EB0EF11CC7CF26960FB6F894DEBF0FBEC5
:10082000CDBFDF91CF911F910F91FF90EF90DF909F
:10083000CF900895CF92DF92FF920F931F93CF93A3
:10084000DF9300D000D000D0CDB7DEB7BC01CE0121
:1008500001960E94B203CE0101960E94F3006C0142
:10086000CE0101960E94AD038FEFC816D80609F499
:1008700040C02091AB043091AC04215031098EE08E
:10088000F82EF29EB001F39E700D112468597C4F32
:10089000FC9C8001FD9C100D1124C80188599C4FBF
:1008A0000E945D038091AB049091AC040197F89E87
:1008B000D001F99EB00D1124AA59BC4F18962D9164
:1008C0003C911997F801EA59FC4F318720871A9615
:1008D0002C911A9722871B962C911B9723871C9685
:1008E0002D913C911D97358724879093AC0480937C
:1008F000AB0426960FB6F894DEBF0FBECDBFDF91D6
:10090000CF911F910F91FF90DF90CF900895FC0140
:100910001182108213821282158214826115710570
:1009200051F0FB0101900020E9F73197AF01461B20
:10093000570B0C94CB010895CF92DF92EF92FF9268
:100940000F931F93CF93DF9300D000D000D0CDB78B
:10095000DEB77C01BC01CE0101960E94B203CE013C
:1009600001960E94F3006C01CE0101960E94AD0336
:100970006BE571E0CE0101960E9487048EE08C9DAC
:10098000F0018D9DF00D1124EA59FC4F46815781ED
:1009900062817381CE0101960E947201811104C0AF
:1009A000CE0101960E94A001CE0101960E94730221
:1009B000CE0101960E94AD038EE08C9D80018D9D3D
:1009C000100D11240A591C4FD8011A968C911A97B0
:1009D000813049F1ED91FC910190F081E02DC80149
:1009E0000995F80164857585072E000C880B990B15
:1009F0000E94D902D8011A968C911A9791E09827F3
:100A00001A969C93B701CE0101960E94B20364E648
:100A100071E0CE0101960E94B2010E947302CE01E4
:100A200001960E94AD0326960FB6F894DEBF0FBE66
:100A3000CDBFDF91CF911F910F91FF90EF90DF908D
:100A4000CF9008951F920F920FB60F9211248F939B
:100A50009F938091E1009091E100937F9093E1005A
:100A600083FF0FC01092E90091E09093EB00109289
:100A7000EC0092E39093ED001092150398E09093B0
:100A8000F00082FF20C093E09093E9009091F20083
:100A9000992319F09AE39093E80090911303992316
:100AA00039F090911303915090931303992389F196
:100AB00090911403992339F09091140391509093DD
:100AC0001403992341F184FF10C08091E2008E7ECF
:100AD00081608093E2008091E1008F7E8093E1004D
:100AE000809112038E7E806111C080FF16C08091BC
:100AF000E2008E7E80618093E2008091E1008E7E34
:100B00008093E100809112038E7E816080931203B6
:100B100004C05D9ACDCF289AD6CF9F918F910F9028
:100B20000FBE0F901F9018951F920F920FB60F9245
:100B30001124CF92DF92EF92FF920F931F932F9386
:100B40003F934F935F936F937F938F939F93AF9355
:100B5000BF93EF93FF93CF93DF93CDB7DEB76C973F
:100B6000DEBFCDBF1092E9008091E80083FFEDC1A8
:100B700068E0CE0145960E94F20982EF8093E8007A
:100B80008D8987FF05C09091E80090FFFCCF03C0DE
:100B90009EEF9093E800982F907609F0C6C09E894A
:100BA0002F89188D91110CC0803829F48091110380
:100BB0008093F10002C01092F1001092F10048C140
:100BC000422F50E0512B913051F4811141C14130FD
:100BD000510509F03DC1809111038D7F0BC0933009
:100BE00061F4811135C14130510509F031C1809165
:100BF00011038260809311032BC1953041F48091E1
:100C0000E80080FFFCCF20682093E30021C19630EC
:100C100009F05FC0EB8CFC8C1092E90010920F037E
:100C200010920E03123091F510920D0310920C03E6
:100C30000E94EC0199E0BE016F5F7F4FDB01E92F5D
:100C40001D92EA95E9F799831A8391E09E8390EAD1
:100C500098879AEF998720910E0330910F03275FB1
:100C60003F4F3C832B838D831092E90010920F033A
:100C700010920E03F0920D03E0920C0349E050E055
:100C800080E00E94CB090E94EC01E2C0F0920D03CB
:100C9000E0920C030E94BA00DC011296ED90FC90E9
:100CA0001397E114F10409F4C0C0D701ED91FC9150
:100CB0000480F581E02DBE016B5E7F4FC701099571
:100CC000009719F00CF0C4C0C7C0F701E084F184AC
:100CD000E8CF973009F4C0C0983021F481E08093C8
:100CE000F100B6C0993009F0B3C0837009F0B4C008
:100CF000E3E1F1E081E021E036E39081992361F0C6
:100D00008093E9002093EB0091919093EC00309355
:100D1000ED008F5F873089F78EE78093EA001092AD
:100D2000EA008F898093150393C08B8D9C8D109260
:100D3000E90010920F0310920E0390930D0380931D
:100D40000C03898D811156C08E899D89913A59F481
:100D5000813209F081C047E050E064E071E080E05A
:100D60000E94CB0975C0913209F076C0833289F4B4
:100D7000888D90E0982F88272F89822BA0E0B0E003
:100D80008093000190930101A0930201B0930301AD
:100D90005FC0803269F48091E80082FFFCCF67E099
:100DA00084E091E00E94F2098BEF8093E80006C096
:100DB000823209F04DC08F8980930B01809110031E
:100DC000882319F0EEEFFAE002C0E0E0F8E080914D
:100DD000040190910501A0910601B0910701803BAB
:100DE0009440A105B10509F07BC080910B0180FF03
:100DF00093C076C00E94BA00DC0112960D911C913E
:100E000013970115110541F1D801ED91FC91019065
:100E1000F081E02DBE016B5E7F4FC8010995811105
:100E200017C0F80100851185ECCF113009F44EC0D0
:100E3000133091F48F89882309F445C0823081F4FE
:100E400040E86BE080E191E00E941E02882321F0DF
:100E50008EEF8093E80079C081E28093EB0075C04B
:100E6000813029F440E86BE084E091E0EDCF8330FD
:100E700099F70E94BA00DC011296ED90FC9013974E
:100E80008E010F5F1F4F6801E114F10479F0D70163
:100E9000ED91FC910680F781E02DB801C70109951D
:100EA000080F111DF701E084F184EECFD8011C92E8
:100EB000F60101900020E9F73197BF016C197D0917
:100EC00040E0C601C1CF6EEE70E002C062EF70E09C
:100ED0006115710509F2FB01449150E080E840CFB3
:100EE0000FB6F894A89580916000886180936000A7
:100EF000109260000FBEA895EE3F2AE0F20739F08D
:100F00008091FE0A9091FF0A91838083A1CF109275
:100F1000FF0A1092FE0A9CCFEE3F8AE0F80731F0FC
:100F2000808191819093FF0A8093FE0A87E797E77B
:100F3000918380839BE088E10FB6F894A895809315
:100F400060000FBE9093600083CF6C960FB6F8944C
:100F5000DEBF0FBECDBFDF91CF91FF91EF91BF916B
:100F6000AF919F918F917F916F915F914F913F9141
:100F70002F911F910F91FF90EF90DF90CF900F90E6
:100F80000FBE0F901F901895CF92DF92EF92FF92B5
:100F90000F931F93CF93DF936C017A018B01C0E015
:100FA000D0E0CE15DF0589F0D8016D918D01D60115
:100FB000ED91FC910190F081E02DC6010995892BFE
:100FC00011F47E0102C02196ECCFC701DF91CF91D1
:100FD0001F910F91FF90EF90DF90CF900895CF93E6
:100FE000DF931F92CDB7DEB76983DC01ED91FC91F1
:100FF0000280F381E02D41E050E0BE016F5F7F4F42
:1010000009950F90DF91CF91089583E08093E900D7
:101010008091F200882319F08AE38093E800089514
:10102000FC018485958597FD0BC09FB7F89482E0FD
:101030008093E9008091F2009FBF90E001960895AF
:101040009FB7F89482E08093E9008091F2009FBFFF
:1010500090E00895089580E090E008958CE691E096
:101060000C94900284E891E00C94900282E991E063
:101070000C9490028F929F92AF92BF92CF92DF9288
:10108000EF92FF920F931F93CF93DF935C016B015D
:101090007A0180910B01882309F45BC080911503CC
:1010A000882309F456C08091120380FF05C0809107
:1010B000E00082608093E000E70110E00AEF83E047
:1010C000882E9AE3992E2097D9F10E94C8028111A7
:1010D0000AC0015009F43DC061E070E080E090E09A
:1010E0000E94D902F0CF282F30E0C217D3070CF4AA
:1010F0008C2F4FB7F8948092E9009091E80095FF0B
:101100001DC0282F30E0C21BD30BF601982F915041
:1011100020F081918093F100FACFC20ED31E1123EB
:1011200019F09092E80009C08091E80085FD06C0A2
:101130009092E80011E0209709F010E04FBFC3CF74
:101140001111C3CF5D9884E6809313031E141F040E
:1011500044F081E090E0F5019383828380E090E0A9
:1011600001C0C701DF91CF911F910F91FF90EF90C8
:10117000DF90CF90BF90AF909F908F9008950E9486
:10118000C80290E00895CF93DF931F92CDB7DEB7EA
:10119000FC018485958597FD05C02FEF3FEF3587CE
:1011A00024870BC0CE0101960E949E02019719F47C
:1011B000898190E002C08FEF9FEF0F90DF91CF9178
:1011C00008950F931F93CF93DF931F92CDB7DEB790
:1011D0008C01FC018485958597FF0EC0CE01019698
:1011E0000E949E02019719F4298130E002C02FEF7E
:1011F0003FEFF80135872487F801848595850F90A6
:10120000DF91CF911F910F910895AF92BF92CF922E
:10121000DF92EF92FF920F931F93CF93DF93CDB79F
:10122000DEB727970FB6F894DEBF0FBECDBF7C01A7
:101230005A01CE0101962F830E94B2038FE291E002
:10124000F701819391936F0165E471E0CF010E94F2
:101250008704BE016F5F7F4FC6010E945D03F701E7
:10126000B186A0862F812287238715870487CE0128
:1012700001960E94AD038BE391E0F7019183808397
:1012800027960FB6F894DEBF0FBECDBFDF91CF918A
:101290001F910F91FF90EF90DF90CF90BF90AF9094
:1012A0000895AF92BF92CF92DF92EF92FF920F9389
:1012B0001F93CF93DF93CDB7DEB727970FB6F89480
:1012C000DEBF0FBECDBF7C015A01CE0101962F8338
:1012D0000E94B2038FE291E0F701819391936F0135
:1012E00065E471E0CF010E948704BE016F5F7F4F0C
:1012F000C6010E945D03F701B186A0862F81228777
:10130000238715870487CE0101960E94AD0385E3EC
:1013100091E0F7019183808327960FB6F894DEBFA2
:101320000FBECDBFDF91CF911F910F91FF90EF9036
:10133000DF90CF90BF90AF90089540910E035091F1
:101340000F0320910C0330910D0342175307B4F49F
:101350009091E8009570E1F39091E80092FD19C03A
:101360008093F10080910E0390910F0301968F738B
:101370009927892B19F48EEF8093E80080910E0352
:1013800090910F03019690930F0380930E0381E0D9
:10139000089580E00895DF92EF92FF920F931F93DC
:1013A000CF93DF93D82E8A017B01E40EF51EEB016B
:1013B000CE15DF0571F0D7FE03C0FE01849101C098
:1013C00088810E949D0921968111F2CF8FEF9FEFB6
:1013D00001C0C801DF91CF911F910F91FF90EF9055
:1013E000DF900895615030F02091F100FC012083DE
:1013F0000196F8CF289884E6809314030895AF925D
:10140000BF92CF92DF92EF92FF920F931F93CF93F1
:10141000DF93109219031092180388EE93E0A0E076
:10142000B0E080931A0390931B03A0931C03B09326
:101430001D038DE191E090931703809316038FEFC6
:101440009FEF9093230380932203C6E6D3E000E04E
:1014500010E08FE2A82E81E0B82ECC24CA94DC2CB8
:10146000FE01A192B1927F0165E471E0CF010E947B
:10147000870440E050E065E471E0C7010E94CB01C1
:10148000D986C886F801EA59FC4F128613861D8654
:101490001C86025F1F4F2E96063B110509F7C0E020
:1014A000D0E065E471E0CE01845E9B4F0E9487042A
:1014B0002B96CF38D105A9F71092AC041092AB044B
:1014C0001092AE041092AD04DF91CF911F910F9155
:1014D000FF90EF90DF90CF90BF90AF900895CF93A3
:1014E000DF93CDB7DEB7EE970FB6F894DEBF0FBE31
:1014F000CDBF789484B5826084BD84B5816084BD9D
:1015000085B5826085BD85B5816085BD80916E00A1
:10151000816080936E0010928100809181008260D2
:10152000809381008091810081608093810080910F
:101530008000816080938000809191008260809320
:101540009100809191008160809391008091900042
:101550008160809390008091C10084608093C1007D
:101560008091C10082608093C1008091C100816040
:101570008093C1008091C30081608093C3008091FB
:10158000C00082608093C0008091C200816080931F
:10159000C20080917A00846080937A0080917A0002
:1015A000826080937A0080917A00816080937A00D3
:1015B00080917A00806880937A00109215031092CF
:1015C0001103109212038091D70081608093D7009D
:1015D00080EA8093D80089B5806189BD89B5826031
:1015E00089BD09B400FEFDCF61E070E080E090E0CD
:1015F0000E94D9028091D8008F7C80618093D800AE
:101600008091E000807F8093E0008091E1008E7EF9
:101610008093E1008DE08093E200559A209AEEEFEE
:10162000FFE7859194918B3F9C4D19F481E0809365
:1016300010038FEF9FEF909323038093220386E1A3
:1016400093E00E941008892BD1F382EA91E00E9476
:1016500090028EEA91E00E945B0281EE91E00E948E
:101660005B0260E272E0CE0101960E94870408EE00
:1016700013E020E041E050E0BE016F5F7F4FCE01FC
:101680008B960E940509CE0101960E94AD03CE0102
:101690008B960E9474036FE272E0CE0101960E9465
:1016A000870420E042E050E0BE016F5F7F4FCE0133
:1016B0004D960E945109CE0101960E94AD03CE01C4
:1016C0004D960E94740366E372E0CE0101960E947B
:1016D000870420E043E050E0BE016F5F7F4FCE0102
:1016E0000F960E940509CE0101960E94AD03CE011E
:1016F0000F960E94740366E472E0CE01C9960E94C0
:10170000870420E044E050E0BE01675C7F4FCE01DB
:1017100001960E945109CE01C9960E94AD03CE01E7
:1017200001960E9474030E94BB030FE211E01A832A
:101730000983CE0103960E94AD03188B0F87CE015B
:1017400041960E94AD031E8F0D8FCE014F960E94D1
:10175000AD031CA70BA7CE018D960E94AD038DE4AF
:1017600092E00E945B0281E892E00E945B0266E4E4
:1017700072E0CE0101960E948704CE0101960E947C
:101780001A04CE0101960E94AD0366E372E0CE0119
:1017900001960E948704CE0101960E941A04CE0190
:1017A00001960E94AD030E94BB0385EA92E00E946D
:1017B0005B020E94BB0389ED92E00E945B026BEF2B
:1017C00072E0CE0101960E948704CE0101960E942C
:1017D0009C04CE0101960E94AD036FE272E0CE013F
:1017E00001960E948704CE0101960E949C04CE01BE
:1017F00001960E94AD0300E010E001151105E9F328
:101800000E940000FACF0F931F93CF93DF938CE1D8
:1018100094E0892B51F0C0EAD4E0CE010E94AD03E0
:101820002B9784E0C131D807C1F7CCE1D4E00FE2B7
:1018300011E02E97FE0101931193CF010E94AD0399
:10184000F3E0C636DF07A9F7DF91CF911F910F9123
:1018500008952F923F924F925F926F927F928F9254
:101860009F92AF92BF92CF92DF92EF92FF920F932F
:101870001F93CF93DF93CDB7DEB7CA1BDB0B0FB639
:10188000F894DEBF0FBECDBF09942A8839884888F6
:101890005F846E847D848C849B84AA84B984C8848C
:1018A000DF80EE80FD800C811B81AA81B981CE0F83
:1018B000D11D0FB6F894DEBF0FBECDBFED01089568
:1018C000EE0FFF1F0590F491E02D0994CF93DF9365
:1018D0008230910510F482E090E0E091C604F0912E
:1018E000C70420E030E0C0E0D0E0309711F1408143
:1018F000518148175907C0F04817590761F4828190
:101900009381209719F09B838A832BC09093C704FF
:101910008093C60426C02115310519F042175307DC
:1019200018F49A01BE01DF01EF010280F381E02D7E
:10193000DCCF2115310509F1281B390B2430310585
:1019400090F412968D919C9113976115710521F079
:10195000FB019383828304C09093C7048093C604E1
:10196000FD01329644C0FD01E20FF31F8193919374
:10197000225031092D933C933AC02091C4043091F8
:10198000C504232B41F420910E0130910F013093B7
:10199000C5042093C40420910C0130910D01211540
:1019A000310541F42DB73EB740911001509111011E
:1019B000241B350BE091C404F091C504E217F30732
:1019C000A0F42E1B3F0B2817390778F0AC014E5FAF
:1019D0005F4F2417350748F04E0F5F1F5093C50423
:1019E0004093C4048193919302C0E0E0F0E0CF0102
:1019F000DF91CF9108950F931F93CF93DF930097BB
:101A000009F48CC0FC013297138212820091C60443
:101A10001091C7040115110581F420813181820FD5
:101A2000931F2091C4043091C5042817390779F514
:101A3000F093C504E093C40471C0D80140E050E0C5
:101A4000AE17BF0750F412962D913C911397AD013C
:101A50002115310509F1D901F3CF9D01DA01338355
:101A6000228360817181860F971F8217930769F423
:101A7000EC0128813981260F371F2E5F3F4F3183BC
:101A800020838A819B8193838283452B29F4F09361
:101A9000C704E093C60442C01396FC93EE931297DA
:101AA000ED01499159919E01240F351FE217F3076B
:101AB00071F480819181840F951F029611969C93F9
:101AC0008E938281938113969C938E931297E0E07C
:101AD000F0E0D80112968D919C911397009719F020
:101AE000F8018C01F6CF8D919C9198012E5F3F4FAC
:101AF000820F931F2091C4043091C5042817390721
:101B000069F4309729F41092C7041092C60402C0F9
:101B1000138212821093C5040093C404DF91CF9105
:101B20001F910F910895A0E0B0E0E9E9FDE00C9469
:101B30002D0CEC01009721F4CB010E94660CB8C07B
:101B4000FC01E60FF71F9C0122503109E217F30751
:101B500008F4ACC0D9010D911C9111970617170715
:101B6000B0F00530110508F49FC0C801049786172E
:101B7000970708F499C002501109061B170B01932F
:101B800011936D937C93CF010E94FB0C8DC05B0180
:101B9000A01AB10A4C01800E911EA091C604B0910A
:101BA000C70440E050E0E12CF12C109709F44AC042
:101BB000A815B905D1F56D907C901197630182E06D
:101BC000C80ED11CCA14DB0480F1A3014A195B09B9
:101BD0006A0182E0C80ED11C1296BC90129713962F
:101BE000AC91B5E0CB16D10440F0B282A38351830F
:101BF0004083D9016D937C930AC00E5F1F4FC301D0
:101C0000800F911FF90191838083EB2DFA2FE1144E
:101C1000F10431F0D7011396FC93EE93129744C070
:101C2000F093C704E093C6043FC08D919C91119737
:101C30004817590708F4AC017D0112960D90BC912C
:101C4000A02DB3CF8091C4049091C5048815990547
:101C5000E1F446175707C8F480910C0190910D01EB
:101C6000009741F48DB79EB740911001509111013A
:101C7000841B950BE817F907C8F4F093C504E093AB
:101C8000C404F901718360830FC0CB010E94660C0C
:101C90007C01009759F0A801BE010E94620ECE019E
:101CA0000E94FB0CC70104C0CE0102C080E090E09E
:101CB000CDB7DEB7EEE00C94490C81E090E0F894EB
:101CC0000C947B0EFB01DC0102C001900D9241508F
:101CD0005040D8F70895FB01DC018D9101908019E7
:101CE0000110D9F3990B0895FB01DC0101900D92CD
:101CF0000020E1F7089510E0CFE8D0E004C0FE0135
:101D00000E94600C2196C039D107C9F7F894FFCF23
:101D1000FFFFFFFF00E10000000000000000C8041A
:101D2000800000C1808100000000000000EF073A41
:101D300008BF0805081008C308E1080000000036C5
:101D400008000000003208000000002E080D0A0004
:101D50002C003B0A0A004C697374612064652041C1
:101D6000747561646F7265733A2000417475616EB9
:101D7000646F20002041747561646F004174756167
:101D80006E646F2041747561646F72204469676985
:101D900074616C00417475616E646F205365727676
:101DA0006F004DC3A9746F646F207669727475619A
:101DB0006C005374617274696E672E2E2E003C2D78
:101DC0002D2D2D2D2D2D2D54657374616E646F2076
:101DD000616469C3A7C3A36F2064652061747561E2
:101DE000646F7265732D2D2D2D2D2D2D2D3E0A0A1C
:101DF0000041646963696F6E616E646F2041747540
:101E000061646F724469676974616C312C20536539
:101E100072766F312C2041747561646F724469670A
:101E20006974616C32206520536572766F320A00E6
:101E300041747561646F724469676974616C0053C1
:101E40006572766F310041747561646F72446967C1
:101E50006974616C3200536572766F32003C2D2DCF
:101E60002D2D2D2D2D2D54657374616E646F207290
:101E7000656D6FC3A7C3A36F20646520617475612E
:101E8000646F7265732D2D2D2D2D2D2D2D3E0A0A7B
:101E90000052656D6F76656E646F20536572766F64
:101EA0003220652041747561646F7244696769749A
:101EB000616C320A003C2D2D2D2D2D2D2D2D5465BC
:101EC0007374616E646F2061747561C3A7C3A36F7F
:101ED0002064652061747561646F7265732D2D2DAA
:101EE0002D2D2D2D2D3E0A0A00417475616E646FF3
:101EF0002041747561646F724469676974616C3103
:101F0000206520536572766F310A004174756164F3
:0C1F10006F724469676974616C310000F5
:00000001FF
